:100000000019002029090000B3460000150900006E
:100010001509000015090000150900000000000086
:10002000000000000000000000000000910A000035
:100030001509000000000000310A00001509000049
:10004000250C0000250C0000250C0000250C0000EC
:10005000250C0000250C0000250C0000250C0000DC
:10006000250C0000250C0000250C0000250C0000CC
:10007000250C0000250C0000250C0000250C0000BC
:10008000250C0000250C0000250C0000250C0000AC
:10009000250C0000250C0000250C0000250C00009C
:1000A000250C0000250C0000250C0000250C00008C
:1000B000250C0000250C0000250C0000250C00007C
:1000C000250C0000250C0000250C0000250C00006C
:1000D000250C0000250C0000250C0000250C00005C
:1000E000250C0000250C0000250C0000250C00004C
:1000F000250C0000250C0000250C0000250C00003C
:10010000F8B5174D284604F002FD044630B32A69BD
:10011000A968136843F4005313600B68114A0D215A
:1001200028469847002819DB0F4F104EAB684FF454
:1001300000515B692846984700280FDB84F00104D2
:1001400014F0FF0414BF39463146094803F070FE2D
:1001500000214FF4004004F0F4FDE7E70020F8BD73
:10016000AC4F0000010006005C5300005F5300002C
:1001700063530000014B1B68184700BF00000020BC
:10018000014B1860704700BF0000002030B585B0FB
:1001900004460D4610220021684604F04AFE022360
:1001A0008DF802302A46044B01932146684603F03D
:1001B00051FE05B030BD00BF7501000080B5054699
:1001C0000E461746984603F0C7F9034604F09CFE16
:1001D000DFF81890044649F8003042463046394668
:1001E000A84754F8090000F00DFC00BF080000000B
:1001F0002DE9F047058B04462807904611D40229C3
:1002000005F0070540F0CC80204604F06FF978B186
:100210000138218B042811D8DFE800F0C2106D8569
:10022000950001290CBF45F0100545F020052583F8
:1002300088F31188BFF36F8FBDE8F08701F0070ADC
:10024000AA4500F0A5800027B9463E46A368002BCA
:1002500000F0BC8041F00801218388F31188BFF3CE
:100260006F8FA168002900F0BA800D68002900F0A6
:10027000B680D1F80480334652462046C047002D50
:1002800076D02B6829461D46F0E701F007035A1F78
:10029000012A1BD8002221F00701062B276889B20A
:1002A000C4E9002209D13B4603E0628B013262833C
:1002B0001B68002BF9D141F002012183204604F094
:1002C00015F900287AD041F0200176E0042B0AD1FC
:1002D00021F0070189B22183204604F007F910B10B
:1002E00041F020012183218B01F0070AAA454FD05C
:1002F0000027B946AAE7236921F0070141F006016A
:10030000062DD3F8009021832DD1B9F1000F3FD0F5
:1003100041F00801218388F31188BFF36F8F3A49B8
:100320002046C84729E021F00701236941F0040174
:1003300089B2042DD3F804902183E6D000273E46ED
:100340004FF0040A82E721F00701236941F005011B
:1003500089B2052DD3F808902183D6D000273E46D8
:100360004FF0050A72E700273E464FF0060A6DE798
:100370002B4687E7B9F1000FD1D1EFF31188202385
:1003800083F31288BFF36F8F238B23F0080323833B
:10039000258BEA062ED525F01003238305F00705EB
:1003A0006669218B002EBFF670AF00232768C4E971
:1003B000003321F0070141F001012183218B01F07D
:1003C000070AAA454FF000097FF440AF002F9CD0E8
:1003D00041F00801218388F31188BFF36F8F002F4C
:1003E000C8D03D68394633465246204604F0AAF844
:1003F0002F46F4E7AB067FF51BAF25F020032383E0
:1004000005F0070500E700BF71450000014B0360E0
:1004100000207047C851000008B5044804F059F89E
:10042000BDE80840024804F054B800BF7253000011
:10043000A7530000014803F053BB00BFC8510000A0
:1004400038B5044618B90F4B0F485B689847616888
:10045000B1F5683F10D0B1F5680F0DD00B4DA94232
:100460000AD011F46861206807D00146084804F0FA
:10047000A7FB00232360656038BD142204F0D9FC7B
:10048000F9E700BF48000020D55300002C5F5CA9AD
:10049000C007002008B520B34368B3F5683F10D10A
:1004A00001220368BFF35B8F53E8001F002903D1CB
:1004B00043E800200028F7D1BFF35B8F0DD1002067
:1004C00008BD094A93420AD000684FF0FF324FF04E
:1004D000FF3302F03FFC0028F1D00448F0E7044865
:1004E000EEE76FF4E040EBE72C5F5CA9E98FFFFFDC
:1004F000EA8FFFFF08B5D8B14368B3F5683F10D164
:1005000000220368BFF35B8F53E8001F012903D16A
:1005100043E800200028F7D1BFF35B8F0BD1002008
:1005200008BD074A934208D0006802F08BFCF6E74A
:100530006FF4E040F4E70348F2E70348F0E700BF58
:100540002C5F5CA9E98FFFFFEA8FFFFF10B504461F
:1005500018B91D4B1D485B6898476368B3F5683F41
:100560002FD0B3F5680F2CD0194A934219D12368C4
:1005700003BB18484FF0FF324FF0FF33214602F023
:10058000BBFB08B923681BB90F4B13485B6898473E
:1005900020681422002104F04CFC4FF4686363606F
:1005A00008E0B3F5683F0DD83A2B03D040F6BA62A5
:1005B0009342DED1206804F04DFB636843F03A03B8
:1005C000636010BD054AF3E748000020D5530000E2
:1005D0002C5F5CA9C0070020FB5300003A00003AE2
:1005E00008B5064906484023142204F0DBFABDE8AA
:1005F00008400449044803F0E5BA00BFC0020020E7
:10060000C0070020D0510000E451000030BFFFF7C8
:10061000FDBF00BF2DE9F0410B4EDFF8308006EB47
:100620000807CC1B054632460949204604F0F3FB77
:10063000A01942460021083C04F0FBFB2C6707F19F
:100640000800BDE8F08100BF0000000004000000C9
:10065000B8510000054B5A699B689A421FBF044A73
:10066000536843F080535360704700BF2C0900204B
:1006700000ED00E070B5264B15469A6A12F0100F97
:100680009A6A14BF1124102412F0080F9A6A18BF36
:100690001224920706460AD5586B9A6A140634D576
:1006A00019B19A6A22F080029A62132401E06FF075
:1006B0001500174B9A6A12F0010F9A6A18BF14249A
:1006C00012F0200F9A6A18BF1524D20602D49B6A32
:1006D0009B070AD50E4B5B68190506D5314600F01D
:1006E0005BFA10B180F309880224094B9A6A9206DA
:1006F00042BF5A6A22F400525A629A6A42F0FF02DA
:100700009A6200232B70204670BD6FF01500CCE775
:1007100000ED00E0134B9A6A12F0007F9A6A14BF52
:100720001E201D2012F0807F9A6A18BF1F2012F42D
:10073000002F9A6A18BF212012F4802F9A6A18BFDE
:10074000222012F4003F9A6A18BF232012F4803F3F
:100750009A6A6FEA02426FEA12429A6218BF242034
:10076000704700BF00ED00E010B5194B0246986AD3
:100770009C6A10F4805F14BF1720162014F4006FD9
:100780009C6A18BF1820A40509D5986B986A0004C4
:1007900004D51AB19A6A22F400429A6219200C4BCD
:1007A0009A6A12F4806F9A6A18BF1A20D2050CD484
:1007B0009B6A13F4005F18BF1C20054A936A43F438
:1007C0007F43936200230B7010BD1B20F5E700BF31
:1007D00000ED00E0F0B5484B5B688BB00446C3F316
:1007E0000803002585F31188BFF36F8F02F07F4067
:1007F000B0F17F4F11D102F00C0008280DD0100786
:100800004CBF0C4601250022033B8DF80720032B2B
:1008100005D8DFE803F0246367602C46F3E7002384
:100820009DF80720CAB902AE04F12007206861686C
:10083000324603C20834BC421646F7D1099A002D4D
:1008400054D0C2F3080121B96FEA52226FEA422262
:10085000099202A9184603F022FF0BB0F0BD264B07
:10086000DA6A9107DBD4DA6A002AD8DBDA6A520046
:10087000D5D55A69A16942F480725A61BFF34F8F8E
:10088000BFF36F8F5A6931F8021C22F480725A61EB
:10089000BFF34F8FBFF36F8F4DF6027291420AD0B4
:1008A0009A6AD2B24AB10DF1070201212046FFF740
:1008B000E1FE0346B4E72368B2E79A6A12F47F4F79
:1008C00005D00DF107010120FFF74EFFF1E79B6A0C
:1008D000B3F5803FA3D3FFF71DFFEAE70DF1070251
:1008E0000021E3E70DF107010020EDE722F4FF729C
:1008F00022F00102ACE700BF00ED00E0044B5A69B2
:1009000042F010025A615A6922F008025A61704797
:1009100000ED00E0EFF30880EFF3098101B57246C6
:10092000FFF758FF01BD00BF002080F31488BFF31C
:100930006F8F0F4880F3088801F070FA00200D498E
:100940000860BFF34F8F00F02BF8202080F3118850
:1009500009484FF40461401880F30988EFF31480CC
:100960000221084380F31488BFF36F8F00F0E4F88E
:100970000019002094ED00E0400B00200749D1F859
:1009800090200023C2F307221846934200DB7047F1
:10099000C1F89830C1F8A0000133F6E700ED00E09F
:1009A00008B572B6002383F31388FFF7E7FF144BF3
:1009B0004FF0FF32C3F88020C3F88420C3F88820AA
:1009C000C3F88C20C3F89020C3F89420C3F8982073
:1009D000C3F89C20C3F88021C3F88421C3F8882180
:1009E000C3F88C21C3F89021C3F89421C3F898214F
:1009F000C3F89C2162B6BFF34F8FBFF36F8F08BD62
:100A000000E100E0084B9B6883420BD1EFF30583C4
:100A100043B1064B5A6842F080525A605A6A22F437
:100A200000425A6202F09EBD2C09002000ED00E059
:100A300014498A684FF030001044EFF3098C80E8C5
:100A4000F01F202080F31288BFF36F8F0E4F4FF0FE
:100A500000664A698A603E60106F0C4C2060506FDF
:100A60000023536780F3118804B5104600F0F8F8AE
:100A7000BDE8044002F1300090E8F01F8CF30988D3
:100A8000704700002C09002004ED00E0DC07002086
:100A90001EF0040F0CBFEFF30880EFF309808169AB
:100AA00011F8021C0229FFD001B5724603F0FDFDCA
:100AB00001BD00BF40B2002807DB044A4109012301
:100AC00000F01F00834042F82130704700E100E051
:100AD000054B420900F01F0053F82220012303FABE
:100AE00000F01040704700BF00E100E040B2002875
:100AF000A8BF00F1604001F10101B8BF064B4FEA09
:100B00004111ACBF00F5614000F00F00C9B2B4BFA5
:100B1000195480F80013704714ED00E0044B054AA7
:100B200023F07F039360BFF34F8FBFF36F8F704746
:100B30000000000000ED00E008B5FFF7EFFF074AF6
:100B4000D2F8883023F47003C2F8883002F016F827
:100B500002F02AFE00F05AF802F054F800ED00E02E
:100B600042F8203C009B42F81C3C0A49019B42F899
:100B7000183C029B42F8143C21F001014FF08073B5
:100B800042F8043C42F8081C0023203A02654367FF
:100B9000704700BFBD010000094A0346906870B16C
:100BA00013F1160F006E05D0A0F140029A4205D84D
:100BB000834203D2814228BF002070470020704743
:100BC0002C09002008B51546094A0A4B9060026FAF
:100BD0001A600E4600F044F82C4686F3098800207F
:100BE000054B98472046002100220023034C204754
:100BF0002C090020DC070020C9460000BD010000D0
:100C0000014B10221A61704700ED00E004480023F8
:100C10002021C2180133302B82F80013F9D170471C
:100C200000E100E008B5EFF30583064A103B02EB54
:100C3000C30152F8330049688847BDE80840FFF710
:100C400009BD00BFEC4F0000024B034A03480121DD
:100C500000F076B80000042000000020F4510000ED
:100C6000026E054B403A1A60044A4021C3E9011262
:100C70001846012100F06EB8E007002000000B15B7
:100C8000084AC2F898000B6823F01F03034343F09F
:100C90001003C2F89C308B6843F00103C2F8A03007
:100CA000704700BF00ED00E02DE9F043DFF8608001
:100CB00085B00E461F4604464FF00009B14523DAC1
:100CC0006068D8B13FB1411E08421BD11F2819D915
:100CD0002368194216D12368019303F018FDA36815
:100CE00003430393D8F89050C5F30725D0B2013DD4
:100CF000A84207D801A9FFF7C3FF421C09F1010967
:100D00000C34DBE76FF01502104605B0BDE8F08348
:100D100000ED00E0044B0522C3F89420BFF34F8F91
:100D2000BFF36F8F704700BF00ED00E0BFF35F8F30
:100D3000024B0022C3F89420704700BF00ED00E092
:100D400010B5034C01232278FFF7AEFF207010BDD1
:100D5000300B002008B50B4A00231278FFF7A4FFE0
:100D600010F1160F07D0084A0021D2F89030C3F3D3
:100D70000723984200DB08BDC2F89800C2F8A01013
:100D80000130F2E7300B002000ED00E02DE9F043E8
:100D9000534B544CD3F890302568C3F307239D423E
:100DA00085B000F29A80FFF7C1FF00200C26854233
:100DB0001AD14D4C4D4F25706846FFF727FBDFF8E1
:100DC0002081DFF82C9106460025AE4213D123780E
:100DD00043490020D1F89020C2F30722934276DBEA
:100DE000FFF798FF002042E0616806FB0011FFF763
:100DF00047FF0130DBE7009800EB05114FEA051CC7
:100E0000CB683B40B3F5000F48D00AD8B3F5001FBC
:100E100030D0B3F5800F36D0B3F5801F10D0013538
:100E2000D3E7B3F1807F42D0B3F1007FF7D150F820
:100E30000C3088684A6803F06AFC40F4802009E0BE
:100E400050F80C3088684A6803F061FC40F0885024
:100E500040F43020CDE901230390D8F89030207879
:100E6000C3F30723013B98422AD96FF0150005B060
:100E7000BDE8F08350F80C3088684A6803F047FCFE
:100E800040EA0900E6E750F80C3088684A6803F049
:100E90003EFC40F0C06040F40030DBE750F80C301E
:100EA00088684A6803F033FC40F08270D2E750F85B
:100EB0000C3088684A6803F02AFC40F08870C9E763
:100EC00001A9FFF7DDFE237801332370A7E7C1F8FE
:100ED0009830C1F8A00001337CE74FF0FF30C6E73F
:100EE00000ED00E000520000300B00200000F0FF99
:100EF0000000081108B5024B1B689847002008BD88
:100F0000EC070020034B044A1860937843F0020377
:100F100093707047EC0700202400002008B50649B4
:100F2000064821F00701C1F1005202F5802203F0CA
:100F300076FA002008BD00BF47190020F007002006
:100F40000E4A0123C2F840354FF080424FF08051E5
:100F5000C2F87835D1F83001082808D1D1F8341119
:100F6000052904D80648415C09B1C2F838364FF06B
:100F700080430122C3F880250020704700E0014033
:100F80003754000020B1034B800143F001031847A0
:100F9000704700BFC0510000084B70B5C31A0D4622
:100FA00007499B10044659430648402203F0CDFBF5
:100FB0002B4601462046BDE8704018471008002027
:100FC000B76DDBB66C4F000073B50C4C0C4A402378
:100FD000041B00930D460B460A49A41061430646C4
:100FE000094803F0DEFB011E05DA30462B4602B04D
:100FF000BDE87040184702B070BD00BF1008002067
:101000000D480000B76DDBB66C4F000010B5EFF374
:101010001184202383F31288BFF36F8F074A13686C
:1010200023F00201DB07116002D4012003F0E8FC89
:1010300084F31188BFF36F8F10BD00BF60080020DC
:10104000002270B5012104461046FFF74FFD0F48FE
:1010500001F06EF80E4B984215D101F079F826692F
:101060000C49304603F091FA00280BDB012535646A
:101070002469084904F11C0003F087FA002801DB09
:10108000E564002070BD6FF00400FBE791110000E3
:101090000000AD0B245200001FB500220123CDE952
:1010A0000223094ACDF800D06B46CDF804D003F0F6
:1010B000A6FB002805DB4FF480420023684601F0C0
:1010C00045FF05B05DF804FB2B48000030B4104B21
:1010D0000C2202FB003301460020D3E90E52986334
:1010E000EFF31180202484F31288BFF36F8F1C6C00
:1010F00004F0C00444F002041C6480F31188BFF3C0
:101100006F8F1DB12B46034830BC184730BC704769
:10111000100800206C4F000010B4EFF31182202360
:1011200083F31288BFF36F8F1748016841F0020400
:101130000460C80707D482F31188BFF36F8F0120C2
:1011400010BC01F017B84FF08041D1F80C04D1F871
:101150000C14C907EFD5EFF3118083F31288BFF3A6
:101160006F8F0A490B6C03F0C00343F002030B645A
:1011700080F31188BFF36F8F82F31188BFF36F8FF5
:10118000002010BCFFF7A2BF60080020100800205C
:1011900010B1012804D07047034B1B6C5B0701D1D1
:1011A000FFF794BF704700BF100800202DE9F04101
:1011B0003849BFF35B8F0746012251E8003F41E801
:1011C00000200028F9D1BFF35B8F33B9324933488F
:1011D0004B60CB608A6003F0EBF97B1E012B2BD8B0
:1011E000012F07D14FF08043D3F81C3403F00303E1
:1011F000012B21D003F035FD0546F8B9284B1B78AB
:10120000E3B14FF080430222C3F808230646DFF81B
:1012100094804FF08044D4F81824D4F81834D203C2
:1012200015D503F00303012B01D0012F0FD155B3C6
:1012300086F31188BFF36F8FBDE8F081EFF311865D
:10124000202383F31288BFF36F8F0125DFE7ADB151
:10125000304603F04DFAD4F81835002BDBD1D4F822
:101260000421002AD7D0C4F80431D4F80431012372
:10127000C4F81835C8F88031A360CCE700212120DC
:1012800003F05FFDE7E74FF080430222C3F8042339
:10129000D2E700BF0C080020FC0700202C0800202B
:1012A000330B002000E100E008B5074803F02FFCF5
:1012B00038B10648FFF726FE0448FEF761FF00201C
:1012C00008BD6FF01200FBE7CC4F0000D112000008
:1012D0000A2838B5074D044604D1AB680D215B6878
:1012E00028469847AB6803485B68E1B298472046B8
:1012F00038BD00BFCC4F0000F0B516464268107BE9
:1013000001F01F0444EA4014106987B0002872D02D
:10131000B6F5001F02F1100506D12146284603F05C
:10132000EFFB002007B0F0BD01A80027B6F5800F45
:101330000197476039D1B3F1007F14BF052304231F
:101340008DF804300023CDE904030393936823FA56
:1013500001F111F001010DF103073ED1B6F1A07FBB
:101360003BD104F01F03620903F5E07328D0012A82
:1013700047D1254A52F82330DB072ED43A4621467E
:10138000284601F0E1F9214B98421CD0029703AAAC
:101390002146284601F098F81D4B98422ED1012293
:1013A0002146284601F028FABBE7B3F1C06F05D00B
:1013B000B3F1007F14BF01230223C1E70323BFE77A
:1013C0004FF0A042D6E73946284601F00DFA104BFF
:1013D0009842DBD06FF00B00A4E73A46214628463E
:1013E00001F0B2F90A4B9842D1D19DF8031028467A
:1013F00001F0F2F9CBE76FF0850093E76FF015008D
:1014000090E751F82330FFDE000300500400AD0BDD
:101410000000AD0B420970B5034602D0012A17D077
:1014200070BD0D4E326951680029F9D003F01F03D9
:1014300001250C689D400029F2D08A682A4002D01C
:101440004B68304698472CB1236821461C46F2E78A
:10145000024EE7E72346F8E7AC4F00008C4F000050
:1014600038B545682B69B3B11035284601F0AAF9A3
:10147000044680B90146284601F080F9084B98429D
:101480000BD108492246284601F058F92246052189
:101490000620FFF72BFB002038BD6FF00400FBE7B0
:1014A0000000AD0B151400002DE9F043466840F232
:1014B0000635D006337B87B002EA050554BFC2F378
:1014C0004010032001F01F07B5F5837F144647EA5B
:1014D00043178DF8030044D00FD8062D18D007D835
:1014E000B5B1022D3FD06FF0150007B0BDE8F08315
:1014F000B5F5807FF7D101250AE040F2022295423E
:1015000033D0B5F5407F32D0B5F5007FEBD1022561
:1015100022032ED5726801238B40C2F80835326948
:1015200092BB07F01F037F092BD0012F79D13F4ACF
:1015300002EB830284F48033D2F80017C3F3004334
:10154000C4F3404444EA430421F4E16144EA8004E2
:1015500021F0070144EA05230B43C2F800370020BD
:10156000C3E70725D4E70425D2E70525D0E70325FF
:10157000CEE7630341BF012372688B40C2F80C358C
:10158000CDE74FF0A042D3E710360DF10202394605
:10159000304601F0D9F814F4403F80460CD139466A
:1015A000304603F0ABFA224B9845D8D19DF8021093
:1015B000304601F011F9D2E701AB4FF0000903AA60
:1015C00039463046CDE90439CDE90199CDF80C9082
:1015D00000F07AFF164B984285D114F4003315D0F1
:1015E0009DF803308DF80E3084F48034C4F3004449
:1015F0004B4603AA394630468DF80C508DF80D4005
:1016000001F01EF80A4B9842CDD06CE7CDE90433C7
:1016100003AA0DF1030339463046039300F054FF4B
:10162000F0E703F5E07352F82330FFDE00030050CB
:101630000000AD0B036803F01F025B09026004D0D9
:10164000012B034818BF002070474FF0A04070479F
:10165000000300502DE9F04FDFF89491DFF894A1DA
:1016600085B01546834600EB810140F2FF185945CD
:1016700003D1002005B0BDE8F08FDBF800305E0438
:10168000C3F3C322C3F3080400F1AC801B0E19F8A6
:101690000270444508BF4FF0FF34222B00F2A580B2
:1016A000DFE803F012191F22252B22A3A3A3A33BDB
:1016B00068A3A3A3A3A3A3A3A3A36B818487A3A3CA
:1016C000A38A9194979A9D00C5F80C45601C5ED141
:1016D0000BF1040BCBE7C5F81445621CF8D00026CB
:1016E0005FE0C5F80845F1E7C5F81045F5E7631C6C
:1016F000C5F80845ECD0002604E0661CC5F80C458A
:10170000E6D0012603A80394FFF794FF039B012270
:1017100002FA03F3C0F80C3508E0C5F80845002FBD
:10172000DBD1631CD4D0002632460627DBF800301C
:10173000019303F40040002818BF002203A8009280
:1017400018BF01260394FFF775FF039C019B009AC5
:1017500000EB8400C3F3412CD0F800473B0243EA7E
:101760008C03134304EA0A04234343EA4603C0F804
:101770000037ADE7C5F80C45D1E7C5F86045601CFA
:10178000DBF80030A4D0C3F30043002BB9D003A88A
:101790000394FFF74FFF039B012606FA03F3C0F8FB
:1017A00008353246C2E7C5F86445E8E7C5F868453C
:1017B000E5E7C5F86C45E2E7C5F82445621C87D02B
:1017C00000220126B2E7C5F828457FE7C5F8304575
:1017D000F4E7C5F83445F1E7C5F83845EEE7C5F854
:1017E0003C4573E76FF0150044E76FF0850041E773
:1017F00068540000F0F8FCFF2DE9F041044647680A
:101800000D4603F02EFA4FF0200888B9264B1B78BE
:1018100073B16426606803F08DF8F0B9012003F01D
:10182000E1F8013EF6D10021212003F08AFAF0E729
:10183000EFF31186314688F31288BFF36F8F60682B
:1018400003F078F8A8B986F31188BFF36F8FEFE73C
:1018500086F31188BFF36F8FE5E7EFF3118631460A
:1018600088F31288BFF36F8F606803F063F8002875
:10187000EED0BB691D706368BA691B680020C3F8AD
:1018800044250122C3F84825C3F82001D3F820419C
:10189000C3F85801D3F858019A6081F31188BFF357
:1018A0006F8FBDE8F08100BF330B0020F8B5002238
:1018B000054601210220FFF719F90220FFF7FAF887
:1018C0006C680121E06803F066F86B681A682369A8
:1018D000C2F82435617D237D0B43A17D0B43C2F803
:1018E0006C356E68D6E9004313F0010342D02F69CE
:1018F00007F1080003F082F82D4B984254D1387A52
:1019000004F10C0204F5907103F06EF8387A0127A7
:1019100007FA00F000F0A4FB0823C4F80035B3690F
:10192000C4F844350023C4F84835A760D4F85831CA
:10193000002BFBD00026C4F800656B683146D868E0
:1019400003F029F86D6831462C68E86803F023F845
:101950000823C4F800352A7A52B9EB69C4F8343543
:101960000123C4F83835C4F81021D4F810212360BD
:101970000020F8BD0822C4F80025B269C4F8442547
:10198000C4F848350123A360D4F82031002BFBD0E4
:101990000023C4F82031D4F820310123E3604FF450
:1019A0008073C4F80433C1E76FF00400E1E700BFBF
:1019B0000000AD0B70B5012383400E4ABFF35B8F6F
:1019C000DC4352E8001F01EA040542E80056002EFD
:1019D000F7D1BFF35B8F4FF4803282400648C0F8E6
:1019E0000823BFF35F8FBFF36F8F0B4214BF01203B
:1019F000002070BD8C0800200010014070B40E491A
:101A0000D1E90034D01AC31844F1000422F07F4613
:101A1000C1E90034A6F50013B3F5400F09D2074B16
:101A20001B681A0A1B069C19054B42F10005C3E905
:101A3000004570BC01F094BF100100209008002008
:101A40001801002011B3BFF35B8F0123104A8340BC
:101A500052E800CF4CEA030C42E800C10029F7D15C
:101A6000BFF35B8F0B4A4FF480338340C2F80433DB
:101A7000094BBFF35B8F1B68BFF35B8FC340DB0772
:101A800042BF064B4FF40032C3F80021704700BF3D
:101A90008C080020001001408808002000E100E0D0
:101AA0000D4B1868010A0006BFF35F8F0B4BD3F88C
:101AB0000435181841F10001B3F5801F0AD2084B14
:101AC000D3E90023904271EB030303D210F180703D
:101AD00041F10001704700BF900800200010014054
:101AE000180100202DE9F04F85B016461F469DF8DD
:101AF00040A00446FFF75EFF0190FFF7D1FFB04220
:101B000071EB070354D23E4B301A67EB0101984248
:101B100071F100014FD23B4B03EB0413D3E90223D5
:101B20009F4208BF96425ED037494FF4803804F197
:101B3000500508FA04F8AD00C1F848832046ADB25C
:101B400002F038FF26F07F4B05F1804504F5A873BD
:101B500005F58835DC464FF003090293029A2CF014
:101B60007F4341F82230C1F84483D1F80435274A35
:101B70006FF00200C01A604420F07F40904232D9DA
:101B8000286868B1D1F804350393A3EB0B0020F06B
:101B90007F40B0F5000F26D9204602F00BFF039BD3
:101BA000BAF1000F07D109EB030C09F10109D5E7E0
:101BB000BAF1000F09D06FF0150520460199FFF723
:101BC00041FF284605B0BDE8F08F0123104ABFF35E
:101BD0005B8FA34052E8000F184342E80001002940
:101BE000F8D1BFF35B8F07490E98230101EB041274
:101BF000C8500F9B5360C2E902670025DDE700BFB4
:101C0000010080000001002000100140FDFF7F0066
:101C1000880800207FB51C4C1C4BC4F80833C4F85E
:101C200048331B4B00254FF0FF304FF0FF31C4F815
:101C30000855C3E902014FF48033C4F80433154B4F
:101C400002264FF400320121C4F804631120C3F8C6
:101C500080212A46FEF74AFF1120FEF72BFF0E4A8D
:101C60000123A360236013600C4B0D4A0093CDE960
:101C7000015500232846FFF735FF3046FFF796FA57
:101C8000284604B070BD00BF0010014003000F00E3
:101C90000001002000E100E08C080020FD19000098
:101CA000FFFF7F002DE9F7432F4CD4F80433990749
:101CB0000BD5D4F8043143B12C4A0023C4F80431C5
:101CC000D4F80431136801331360D4F80433DA0311
:101CD00029D5BFF35B8F264B53E8002F22F001017B
:101CE00043E800100028F7D1BFF35B8FD30702D47D
:101CF000D4F84031BBB10025C4F84051D4F840318C
:101D0000FFF7CEFEEFF31182202383F31288BFF397
:101D10006F8F184BD3E90267B042B94106D282F304
:101D20001188BFF36F8F03B0BDE8F0834FF0FF3829
:101D30004FF0FF39C3E90289D3E900101D604FF469
:101D40008033C4F84833C4F84051D4F8403182F3AA
:101D50001188BFF36F8F0029E5D0009032463B46D3
:101D600028468847DFE700BF0010014090080020A8
:101D7000880800200001002030B5431C124C85B0BB
:101D800005D08442A8BF0446012CB8BF0124FFF748
:101D900087FE0E4B0C4DD3E90013401AB0F5000F2F
:101DA00010D22218AA4228BF2A4652184FF000002B
:101DB00007490091CDE9010043F10003FFF792FECE
:101DC00005B030BD2A46F0E7FFFF7F00100100207C
:101DD000FD19000008B5FFF763FE024B1B68C01A2F
:101DE00008BD00BF100100204FF08053D3F8302110
:101DF000082A06D1D3F83431052B02D8024AD05C28
:101E000070470020704700BF84540000024AD2F897
:101E10000034002BFBD0704700E0014010B54FF0BC
:101E20008053D3F83021082A4ED14FF08042002150
:101E3000C2F80C11C2F81011C2F8381502F5404270
:101E4000D3F80414C2F82015D3F80814C2F82415E6
:101E5000D3F80C14C2F82815D3F81014C2F82C15B6
:101E6000D3F81414C2F83015D3F81814C2F8341586
:101E7000D3F81C14C2F84015D3F82014C2F8441546
:101E8000D3F82414C2F84815D3F82814C2F84C1516
:101E9000D3F82C14C2F85015D3F83014C2F85415E6
:101EA000D3F83414C2F86015D3F83814C2F86415A6
:101EB000D3F83C14C2F86815D3F84014C2F86C1576
:101EC000D3F84434C2F87035FFF78EFF18B13A4B9F
:101ED0003A4AC3F88C26FFF787FF18B1384BFB222C
:101EE000C3F81825FFF780FF70B14FF080414FF025
:101EF0008053D1F8E42ED3F8583222F00F0203F0C9
:101F00000F031343C1F8E43EFFF76EFF20B12D4BE2
:101F10004FF40072C3F840264FF08053D3F83031AD
:101F2000082B1AD14FF08043D3F80024D20744BFC6
:101F30006FF00102C3F800244FF08053D3F834311E
:101F4000052B02D8204AD35C3BB14FF01023D3F8C5
:101F500008224FF08043C3F858254FF01023D3F8E0
:101F60000022002A03DBD3F80432002B22DA1749BF
:101F700001234FF01020C1F804351224FFF746FF6B
:101F8000C0F80042FFF742FFC0F80442FFF73EFFEF
:101F90000023C1F80435FFF739FFBFF34F8F0C4919
:101FA0000C4BCA6802F4E0621343CB60BFF34F8F5F
:101FB00000BFFDE710BD00BF005000404881030096
:101FC00000F00040009002407E54000000E001401C
:101FD00000ED00E00400FA0530B50468CCB1BFF3B1
:101FE0005B8FB4FA84F3C3F11F03DBB201229A4082
:101FF00024EA020250E8005FA54204D140E8002C28
:10200000BCF1000FF6D1BFF35B8FE6D102480B7035
:1020100030BD0248FCE700BF0000AD0B0200AD0B75
:1020200010B50368CB40DB0714D401238B40026852
:10203000BFF35B8F43EA020150E8004F944204D1A2
:1020400040E8001CBCF1000FF6D1BFF35B8FEED16E
:10205000014810BD0148FCE70000AD0B0400AD0BCA
:10206000014BC3F80405704700F00140F7B5054681
:10207000F8B101281BD104224FF4807301464FF0C0
:10208000804003440244C0F8081300260121116077
:102090001E608D421B688DF8071008BF0DF1070602
:1020A00042F210744FF0804745B1012D29D003B0A2
:1020B000F0BD0C224FF482730221E0E7D7F8183408
:1020C00003F4803366B9002BF1D0012002F08AFCC2
:1020D000013CF3D1EBE702F085FC013CE4D1E6E7FB
:1020E000D7F8182402F003023260002BDFD09DF8ED
:1020F00007000128EFD0012DD9D10C4B00225A71D5
:10210000D5E7D7F80C3403F480333EB9002BF4D074
:10211000012002F067FC013CF3D1C8E7D7F80C249A
:1021200002F001023270002BE1D1E6E794080020B2
:10213000044B1A7922B9012218609A80024870472C
:1021400002487047940800200000AD0B0C00AD0B56
:1021500008B5074B1B682BB10020FEF7B9FC08B986
:10216000FEF7A8FC4FF080430022C3F8182508BDF5
:102170009408002010B510B1012843D010BD4FF0D5
:102180008043D3F81814D3F81824C80321D502F0DB
:102190000303012B04D013B10020FFF767FF0023D6
:1021A0004FF080420220C2F8183508224FF48273A3
:1021B00003F180430021196002F180421C68012470
:1021C0001460154A12680AB34FF08043C3F8040341
:1021D000D4E7D3F81424D107E1D5D3F81C2492070F
:1021E000DAD40D4A12681AB10222C3F80423C5E7F3
:1021F000D3F80421002AFBD00022C3F80421D3F82D
:102200000431BBE700224FF48073D1E71A68002A3B
:10221000FCD019601B68B1E794080020F8B54FF0B6
:1022200080431C4ED3F804430125002704B9F8BDB0
:10223000B4FA84F0C0F11F00830003F580739BB2F1
:1022400003F1804305FA00F2196892B224EA02040D
:102250000029EBD01F601B684FF08043012AC3F8B0
:10226000082305D0022A08D03368C0B29847DDE7BA
:102270007379002BDAD17271F6E7D3F81814D3F81A
:1022800018148907F0D1C3F81855C3F804239D60CA
:10229000CCE700BF94080020036803F01F025B092D
:1022A000026004D0012B034818BF002070474FF094
:1022B000A040704700030050034A430900F01F008C
:1022C000D35C1844C0B270478A54000070B505460C
:1022D000FFF7F2FF0C4C08300E4634F81030DA05E8
:1022E00008D5C3F3432304EBC302284654F8333024
:1022F00052689847A3682BB1E26831462846BDE88A
:102300007040184770BD00BF9C08002008B5FFF75B
:10231000D3FF034B083033F81000400B08BD00BF5B
:102320009C08002008B5FFF7C7FF034B083033F8BF
:102330001000C0F3400008BD9C08002008B5FFF75E
:10234000BBFF034B083033F81000C0F3401008BD4A
:102350009C080020034611F0010010B5CCB20DD14D
:10236000A207C4F3400012D5094AD2F820055860EC
:10237000C2F82005003818BF012008E04FF0A04146
:10238000D1F820251A60C1F82025002AE8D010BD18
:102390000003005010B5FFF78FFF124A083032F8E3
:1023A0001030D9051CD5C3F3432123F4F85322F888
:1023B000103002F10E04002034F8023F13F4807F45
:1023C00003D0C3F3432399420AD001303028F3D11C
:1023D000002342F831300448BDE81040FFF720BE2A
:1023E00010BD00BF9C0800201409002001F180519D
:1023F000F0B501F5C2510446114A002089000125BB
:1024000006468A420BD10F4BD3F87C2132B1002211
:10241000C3F87C21D3F87C3140F00040F0BD02F1DC
:102420004043A3F5C2439B0805FA03F31C4204D0C2
:10243000176817B11660176818430432E1E700BF48
:102440000061004000600040F7B506460846FFF70F
:1024500033FF194F00F108050C4637F81530DB073C
:1024600027D5304602F026FB2046FFF767FF40B134
:102470002046FFF74BFF316800F5A270002341F8BA
:1024800020302046FFF786FF002301A827F81530EB
:102490000194FFF701FF019B00EB8300074BD0F88D
:1024A0000027134043F00203C0F80037044803B08C
:1024B000F0BD0448FBE700BF9C080020F0F8FCFFDB
:1024C0000000AD0B0400AD0B2DE9FF411646804620
:1024D0000846FFF7F1FE0C463168054609B3204671
:1024E000FFF720FF18B12046FFF728FF10BB00239D
:1024F000CDE900338DF80E308DF80F300DF10F025D
:102500000B4620460DF10E0102F07CFA484A05F117
:10251000080132F8113023F0020343F0010322F8DE
:10252000113073685BB320461F785968FFF7FAFED5
:1025300010B1C9B13F4825E03D4A05F1080C32F819
:102540001C3023F02003DB04DB0C22F81C3059B1D3
:10255000032FEFD87168D8F8000049680978A7B947
:1025600001F5A27140F82170314A05F1080132F8F5
:10257000113023F01C0343EA870322F81130B368BB
:102580006BBB2D4804B0BDE8F08100EB810043EA4D
:102590004133D0F810E52EF0030EC0F810E5D8F85E
:1025A000000000EB810E43F02003DEF8100522F856
:1025B0001C3020F44F3020F44070CEF8100520027B
:1025C000DEF8108500F47C5040EA074040EA08003D
:1025D000CEF8100502EB4100A0F87C40C4E7D3E937
:1025E00000672046FFF7D6FE002ECAD0104CD4E973
:1025F0000023964203D19F4201D1002209E00F48F7
:102600000DF10F01FFF7E8FC0B4B9842BAD19DF892
:102610000F2044F8326004EBC20308355F6034F8E1
:10262000153043EA422343F4807324F81530A8E7B9
:102630009C0800200400AD0B0000AD0B1409002025
:102640002DE9F0430C4685B08046204611461E46D3
:10265000FFF732FE054629B32046FFF763FE18B99F
:102660002046FFF76BFE18BB314F05F1080937F81C
:10267000193013F01C0F02D04B78012B18D0012316
:102680008DF80F300023CDE900134A1C8B1C204627
:102690000DF10F0102F0B6F937F8193043F00303DA
:1026A00027F81930002E41D02046FFF73BFE18B91D
:1026B000204805B0BDE8F08396F800C0D8F8003097
:1026C0001B4F0CF5A272002143F8221005F10802FD
:1026D00037F8121021F02001C904C90C27F8121094
:1026E00075781DB3D8F80000B67800EB8C002D0487
:1026F000D0F8103523F4991323F4F853C0F81035AB
:10270000230203F47C5305F440353605D0F810E578
:102710002B4306F4801641EA4C31334341F020014B
:1027200043EA0E0327F81210C0F810350248C0E73C
:102730009C0800200400AD0B0000AD0B014BC3E969
:10274000021270479C08002010B508461446FFF797
:10275000F5FD50B10846FFF7AFFD054B083033F8E3
:10276000103004485B0B237010BD0348FCE700BF2A
:102770009C0800200000AD0B0400AD0B70B50E4CA2
:1027800094F88C500646A5B96022294604F1100041
:1027900002F04FFB3068C0F87C51D0F87C3140F338
:1027A0000730FEF787F90123044884F88C30A367CB
:1027B00070BD0348FCE700BF9C0800200000AD0B83
:1027C0000C00AD0B034B93F88C00003818BF0120B0
:1027D000704700BF9C0800200079024B03EB80008B
:1027E000FFF71EBC340000200079024B03EB800091
:1027F000FFF7F2BB34000020F7B505460846164641
:10280000FFF79CFD0C462968F0B12046FFF78AFDD2
:102810000746C8B92046FFF779FD04B2A40004F5C5
:1028200080728F508A5829682144D1F8102542F0CF
:102830000102C1F810252EB12968012202FA00F325
:10284000C1F8043303B0F0BDD1F80433002BA4BFAA
:102850004FF00043C1F804332046FFF72DFD0F4B26
:10286000083033F81030C3F38203042B12D0052B49
:1028700012D001A80194FFF70FFD019AD0F810358E
:10288000D34003F00103991C204603B0BDE8F0409B
:1028900002F001B90321F7E70221F5E79C080020C7
:1028A0002DE9F04F654BD3F80403C0B287B008217F
:1028B00040F00040FFF79AFD051E2BDA00230321AC
:1028C00004A8CDE90433FFF745FDDFF874A10DF14D
:1028D00010084FF000094FF0010B1AF8013B59495D
:1028E000DA0803F007038A5C22FA03F3DA071CD440
:1028F00008F10408B9F1000F14D000214FF0004096
:10290000FFF774FD032104A8FFF724FD0028DCD1A4
:1029100025F00045494E4C4F0124002D78D107B0D9
:10292000BDE8F08F4FF00109D7E7484B4B440093C7
:10293000D8F800100029DBD0009B91FAA1F11C7897
:10294000B1FA81F141EA44142046FFF7B5FC3E4B51
:102950000394083033F81070C80801F0070118F824
:1029600000200BFA01F122EA0102BB0808F800205E
:1029700003A80193FFF790FC039A019B02F5E07214
:10298000C7F3820650F822205B073746C2F30142A4
:1029900023D520463946D6B2FFF798FC03A8039406
:1029A000FFF77AFC039B03F5E07350F82330C3F381
:1029B00001439E4207D10021204602F06CF83146C7
:1029C000204602F068F803A80394FFF765FC039B18
:1029D0000BFA03F3C0F82035AAE7022A0CD1032131
:1029E000204602F058F806F00503012BEBD13946DA
:1029F0002046FFF76BFCE6E702212046019202F039
:102A00004AF8032EF3D0019A032ADCD1022EEDE717
:102A100095FAA5F3B3FA83F304FA03F225EA020563
:102A200003F5A27207EB430356F82210B3F87C00BB
:102A3000C1F30141FFF74AFC6FE700BF00600040AF
:102A40009A540000B85200009C0800209A540000DC
:102A500001460148FFF7C0BA3800002038B5EFF34F
:102A60001185202383F31288BFF36F8F064B9C6878
:102A700002F060F885F31188BFF36F8F2046BDE840
:102A80003840FDF7BFBF00BF2C09002038B50A4B06
:102A900053F82040013053F82050A54200D838BDEB
:102AA000606830B1037FDB0701D402F046F80834D8
:102AB000F3E723689847FAE7BC52000070B52A4B49
:102AC0002A4C2B4D012286B003201A70FFF7DEFF3F
:102AD000FDF7A2FC0420FFF7D9FF2646AE4204F121
:102AE000300410D300F044FC204C224EAC4226D3DC
:102AF00000F052FCFDF704FB1F4A137B23F0010397
:102B0000137306B070BD54F80C3C059354F8103C98
:102B1000049354F8143C039354F8183C029354F86B
:102B20001C3C019354F8203C009354E90A2354E9D7
:102B30000C0100F031FA54F8303C5E65CDE7D4E981
:102B40000A23B3F1FF3F08BFB2F1FF3F05D052EABD
:102B50000301206803D100F0DBFC3034C6E73146C6
:102B6000183000F06BFEF8E7330B00206C510000CA
:102B70006C5100003B4D0000A001002008B5034847
:102B8000034A0021121A01F0EFFF08BD00010020E6
:102B9000380B002070B5002386B00122CDE9042354
:102BA000134E144D01930F22CDE902321249142322
:102BB00003FB005506EBC01604464FF4C07000FB43
:102BC00004110E4B00954FF4A072304600F0E4F96A
:102BD000737B0B4AEE6023F0040373734FF40463BA
:102BE00004FB033313442C746B6006B070BD00BF4C
:102BF000200100202C090020801300202F4C000011
:102C0000400B0020BFB50020FFF740FF294B83F3A6
:102C10000888294C294F636943F4007363610025D8
:102C2000E02384F82230E57725766576A57684F86A
:102C30002050636A43F4E023636284F82350FDF775
:102C40005DFEFDF7DDFF4FF0FF33A362E362FEF7A9
:102C50009DF8FDF7F9FF1A481A4C00F0E9F901F068
:102C600055FF0120FFF712FF0220FFF70FFF00F0D2
:102C7000C7FB154B15495C61154B05930123CDE945
:102C800003534FF480623B46CDE901550095204641
:102C900000F082F9627B064622F00402204662734D
:102CA00002F01FF82846FFF775FF3A4631462046E6
:102CB000FDF788FF8013002000ED00E0BD2A000032
:102CC00020020020A00100202C0900200015002077
:102CD0009C54000038B5064C064D0020AC4200D391
:102CE00038BD204601F044FF0028F9DB1C34F5E72D
:102CF000B0000020B000002073B50C46EFF3118146
:102D0000202585F31288BFF36F8FC5685DB12560FC
:102D10002B68C360836901338361002081F31188CC
:102D2000BFF36F8F11E052EA030603D125606FF005
:102D30000B00F3E7CDE900230246083000F05EFA0D
:102D400018B9034B9B681B69236002B070BD00BFBC
:102D50002C0900202DE9F341044617461E46EFF3E7
:102D60001188202383F31288BFF36F8FC368334A1F
:102D70007BB180689168884219D057EA060318D160
:102D800088F31188BFF36F8F6FF00F0002B0BDE8BA
:102D9000F081916891F90E1021610133E36093682D
:102DA000A36088F31188BFF36F8F0020EEE72169DD
:102DB000F2E791F90E1090F90E309942A8BF19462A
:102DC0006FF07E029142B8BF11468B422DDD01F0BB
:102DD00039FF0546CDE9007619482246414600F004
:102DE0000DFA0028E1D0EFF31186202383F3128837
:102DF000BFF36F8FA068D0B1236821699C420AD0CD
:102E00004BB193F90E309942A8BF19466FF07E037B
:102E10009942B8BF194601F015FF40B10848314644
:102E200000F080FA6FF00A00B0E70025D2E7002D2D
:102E3000F4D186F31188BFF36F8FF3E72C090020DC
:102E4000340B0020F8B583680546002B3FD0234A99
:102E5000926893423ED1C368012B03D9013BC36002
:102E60000020F8BDEFF31187202383F31288BFF30E
:102E70006F8F0169806801F0E5FE2C68A54207D1DB
:102E80000023C5E9023387F31188BFF36F8FE7E7AB
:102E9000002CF5D0D4E9003213605A60637B002621
:102EA00023F002036373C4E90066A66004F118000E
:102EB00001F085FFAC6094F90E302B612046A667C7
:102EC00001F00FFF0648394600F02CFAC8E76FF012
:102ED0001500C6E74FF0FF30C3E700BF2C09002004
:102EE000340B002070B5EFF31186202383F3128892
:102EF000BFF36F8F0468A0421AD0CCB1D4E900327E
:102F000013605A60637B002523F002036373C4E9F6
:102F10000055A56004F1180001F051FF2046A56797
:102F200001F0DFFE31460848BDE8704000F0FAB914
:102F3000D0E902329A4218BF0133836086F31188C8
:102F4000BFF36F8F70BD00BF340B002013B5EFF3DC
:102F50001181202484F31288BFF36F8F846844B1F9
:102F6000013C846081F31188BFF36F8F002002B0B1
:102F700010BD52EA030406D181F31188BFF36F8FAD
:102F80006FF00F00F3E7CDE900230246014800F09F
:102F900035F9ECE7340B00202DE9F043073285B01A
:102FA00022F007020E461F461099017300F15803E4
:102FB0007F32C0E916330446002322F03F02042189
:102FC000836041733F2A0F98A073C4E90633E3730B
:102FD00006F14009A2F1400805D883F31188BFF338
:102FE0006F8F084602DFB51829462046FDF712FB11
:102FF00007300E9B20F00700A066C4E918980293E2
:103000000D9B01932D1A0C9B00932A463B4631469B
:103010002046FDF7A5FD00236365044B9B6803B1C3
:10302000DB6EE366284605B0BDE8F0832C0900207E
:1030300040F2011383810023C0E91833C366014BBA
:10304000986070472C090020094A93686FF00A01C4
:103050009967084958674B6843F080534B600023D9
:1030600083F31188BFF36F8F9368986F704700BF29
:103070002C09002000ED00E070B590F90D20437B95
:10308000002A36DBD90634D11B4C63F07F0322467D
:10309000437352F8183FE169934207D1C0E9002118
:1030A0000860E06111E09942F8D01B68002BF5D070
:1030B00090F90E5093F90E60B542F4D0AE42F2DDB5
:1030C0005968C0E9003108605860A569954200D090
:1030D00005B9E568A3685A7BD20604D1DA897F2A4C
:1030E00001D9AA6932B1AB4202D0284600F004FBF4
:1030F000656170BD6361FCE72C09002038B590F96B
:103100000D20437B002A014604DA03F07F0343735A
:1031100001F0ADFD0D4D2A46AB6852F8184F9442B0
:1031200000D004B9EC688B4207D05A7BD20604D198
:10313000DA897F2A01D9A2692AB1A34202D02046A6
:1031400000F0DAFA23466B6138BD00BF2C0900207D
:10315000B3F1FF3F08BFB2F1FF3F03D0024918307F
:1031600000F06CBB704700BF3B4D000070B590F99C
:103170000D20437B002A014604DA03F07F034373EA
:1031800001F075FD4B7B1C4C63F07F0322464B73B3
:1031900052F8183FE069934207D1C1E9002001606D
:1031A000E16111E09842F8D01B68002BF5D091F94D
:1031B0000E5093F90E60B542F4D0AE42F2DD58687D
:1031C000C1E9003001605960A569A368954200D04B
:1031D00005B9E5688B4207D05A7BD20604D1DA895B
:1031E0007F2A01D9AA692AB1AB4202D0284600F051
:1031F00083FA2B46636170BD2C090020F8B50E4B95
:103200000C4611460D4A98681060DDE90667EFF339
:103210001182202282F31288BFF36F8F9D682846A7
:1032200001F037FD284632463B46FFF791FF204626
:10323000BDE8F840FFF708BF2C0900204C0900202A
:10324000F8B50446EFF31187202383F31288BFF308
:103250006F8F437B03F01F02002A0CBF012600265C
:1032600049B239D103F07F03437301F000FD2C4DC7
:10327000437B817363F07F032A46437352F8183F00
:10328000934227D1E869C4E900200460EC610FE0B3
:103290009842F8D01B68002BF5D093F90EC0614519
:1032A000F6D08C45F4DD5968C4E900310C605C60EF
:1032B000AC69944200D004B9EC68AB689C4202D07F
:1032C000204600F019FA6C6187F31188BFF36F8F05
:1032D0003046F8BDE869DEE79B071ED5856801F03A
:1032E000C6FC81732B689D4209D16B68C4E9005309
:1032F0001C606C60E8E76A689342F6D01B68002B9C
:10330000F3D093F90E209142F5D08A42F3DD5A684A
:10331000C4E9003214605C60D6E78173D4E700BF73
:103320002C09002049B9EFF3058030B9054B5A69E3
:103330009B689A4201D0FFF787BE81F31188BFF3E3
:103340006F8F70472C090020034648B9EFF30582C0
:1033500032B9064A51699268914201D0FFF774BEB2
:1033600083F31188BFF36F8F704700BF2C090020D3
:10337000EFF31181202383F31288BFF36F8F054B86
:103380009A68D37B013BD37381F31188BFF36F8FAE
:10339000704700BF2C09002070B5EFF31186202381
:1033A00083F31288BFF36F8F144DAB68DA7B013261
:1033B000DA732A4652F8184F944200D004B9EC68E8
:1033C0005A7BD20604D1DA897F2A01D9A2692AB1AF
:1033D000A34202D0204600F08FF923466B6186F3AA
:1033E0001188BFF36F8FEFF31180202383F31288CE
:1033F000BFF36F8FBDE87040FFF7A6BF2C09002018
:10340000024B03F11802C3E9062270472C09002081
:1034100070B5EFF31186202383F31288BFF36F8F0B
:103420001B4CA168E0690B68814214BF1A46002258
:1034300049680B605960A368E1692AB9154AC3E974
:1034400000210B60E3610CE093F90E0092F90E503D
:10345000A84218D0854216DD5168C3E900210B60EF
:103460005360A5690B4B9D4200D005B9E568A36880
:103470009D4202D0284600F03FF965613046BDE824
:103480007040FFF7E1BD8A42D8D01268D5E700BF8F
:103490002C09002044090020F8B550EA0103064633
:1034A0000C4603D1FFF7B4FF0020F8BDEFF31187FE
:1034B000202383F31288BFF36F8F124D124BA8683D
:1034C0001860FFF71BFEA8681049234632461830E3
:1034D00000F0B4F9AA68537B43F004035373044625
:1034E0003846FFF7B1FDAB68D3E90A23B3F1004FCB
:1034F00008BF002AD8D101F08AFC201A20EAE07027
:10350000D3E700BF2C0900204C0900203B4D0000F0
:1035100038B50446EFF31185202383F31288BFF3F7
:103520006F8F437B5B070FD5183001F048FC637B3E
:1035300023F0040320466373FFF79EFD29460548E8
:10354000BDE83840FFF7EEBE85F31188BFF36F8FFB
:1035500038BD00BF340B0020014B9868704700BF96
:103560002C0900202DE9F8430446077BEFF3118571
:10357000202383F31288BFF36F8F437B190705D590
:1035800085F31188BFF36F8FBDE8F883D90943F045
:1035900008025AD14273A36813B1204601F06FFBB1
:1035A00004F1180001F00BFCA66D04F15808B045B9
:1035B00011D04FF0000976B1304601F060FB06F102
:1035C000180001F0FCFBC6F878903046FFF754FD78
:1035D000A66DB045EFD1DFF8B880D8F808309C422E
:1035E0003BD1EFF30589B9F1000918BF4FF001098C
:1035F000D8F81860274A964200D00EB9D8F80C6067
:10360000B34202D0304600F077F8C8F81460B9F140
:10361000000F02D02048FFF70BFDD8F808309C427D
:1036200031D1EFF3058373BB227BD20718D4284630
:10363000FFF70AFDFB07A7D5002383F31188BFF32B
:103640006F8F0423184602DF9EE703F07F0343F0E9
:103650000803437301F00BFB9DE74FF00009C7E738
:1036600085F31188BFF36F8F83F31188BFF36F8FDA
:103670000423184602DFEFF31180202383F312881E
:10368000BFF36F8FD4E785F31188BFF36F8FD1E756
:103690002C0900204409002020020020044BC01AFD
:1036A000044BC0105843044B01221A54704700BF0A
:1036B000A0020020ABAAAAAA340B0020C3897F2B4A
:1036C00012D80A4B1B6863B1094B90F90E201B6896
:1036D0009A4209DB437BDB0606D1064BC31A18BFAF
:1036E000012303F0010070470023FAE73C000020AB
:1036F000500900202001002070B50E4B0E4C1E7C9E
:1037000006EB460304EBC3040546204601F057FBD5
:103710000A4B002228469A55FFF7D0FF48B1084BC4
:1037200008491A68013A2046D317BDE8704000F0F6
:1037300085B870BD2C090020A0020020340B0020A9
:103740003C0000209D36000038B5EFF311852023A2
:1037500083F31288BFF36F8F104B114A9C68106877
:10376000A04206D1FFF7C8FF85F31188BFF36F8F22
:1037700038BD00211B7C11600A4AD35C002BF3D0BA
:103780002046FFF79BFF0028EED0637BDB0602D1CB
:103790002046FFF7EBFC2046E4E700BF2C090020A1
:1037A0004C090020340B00200748084A084908B596
:1037B000121A01F0DBF90748074A0849BDE808403A
:1037C000121A01F0D3B900BF000000200001002050
:1037D000B05400000000002000000020B0540000A1
:1037E000024B1868984208BF002070474000002034
:1037F000034B1B680BB9FEF7EDBA0020704700BF02
:103800005409002030B570B10B4B5B6898420AD068
:10381000036843B1D3E90421D0E90445121941EB0F
:103820000501C3E90421D0E9003213605A60002386
:10383000C0E9003330BD00BF40000020B3F1FF3FBE
:1038400008BFB2F1FF3F2DE9F84F044699461546EF
:103850001F467BD08160EFF31188202383F3128809
:10386000BFF36F8F013279F1FF33DFF8E8A020DB7F
:10387000FFF7BEFFDAE90027013549F100092D18ED
:1038800049EBE073C4E90453AD18064643EB070760
:103890004FF00109FFF7A4FFDFF8BCE0DEF804A059
:1038A0000346EBB9C4E900EACAF80040CEF8044088
:1038B00028E0DAE900126FF001035B1A4FF0FF31E4
:1038C00061EB02025B1B62EB0902012B72F100014A
:1038D000BCBF01230022C0E904324FF00009D9E740
:1038E000D3E9041CD4E904208A4270EB0C0B24DADF
:1038F000891A5A686CEB0000C3E90410C4E900326D
:1039000014605C60FFF76CFF84420ED1134B1B68A0
:103910005BB9B9F1000F02D1FFF76AFF06463046E6
:1039200001F036FA0021FEF727FA88F31188BFF379
:103930006F8F28463946BDE8F88F521A60EB0C00AD
:103940009A45C4E90420ADD01B68AAE700252F469C
:10395000EFE700BFB802002040000020540900201B
:103960002DE9F047EFF31185202383F31288BFF38D
:103970006F8FDFF8A490DFF8A480C9F80000FFF78C
:103980002FFF00260027D9F80030D8E900ECD9171E
:1039900050B1D0E90442A34271EB020A1CDAE41AE6
:1039A00062EB0102C0E9044213EB0E034FF0000486
:1039B0004CEB01012046C8E90031C9F8004001F094
:1039C000E7F92146FEF7D8F985F31188BFF36F8F29
:1039D000BDE8F047FFF7B8BE14EB0E024CEBE47302
:1039E000C0E90467C8E90023FFF70CFF85F31188DD
:1039F000BFF36F8F83689847EFF31185202383F31C
:103A00001288BFF36F8FD9F800301B1BC9F8003044
:103A1000FFF7E6FEB7E700BF54090020B802002018
:103A200010B5EFF31184202383F31288BFF36F8F57
:103A3000FFF7DEFE054A0346D2E90001181841EB04
:103A4000E37184F31188BFF36F8F10BDB8020020BB
:103A500010B50A4C23681BB101232360002010BD60
:103A600000F0EAF80028F7D00138062803D8044B04
:103A700053F8200010BD034810BD00BF58090020B6
:103A8000D4520000FE8FFFFFBFF34F8F0549064B56
:103A9000CA6802F4E0621343CB60BFF34F8F00BFEC
:103AA000FDE700BF00ED00E00400FA0510B4094B8B
:103AB00009490A4C4FF0FE32C3F800244968C3F8A4
:103AC0000424C3F80824C3F80C240023C4F80035E8
:103AD00010BC084700B002504800002000A002506F
:103AE000D0E90012014BC3E90012704748000020E2
:103AF00010B5044650B1636813F0685F05D0064AFC
:103B0000934202D000232360626010BD034B04483F
:103B10005B689847EFE700BF2C5F5CA94800002076
:103B2000F0520000C8B143680D4A934213D013F01D
:103B3000685F0ED0012350E8002F194640E8001CB2
:103B40009CF0000FF7D1012AF5D0BFF35F8F002062
:103B5000704704487047044870476FF4E04070476E
:103B60002C5F5CA9E98FFFFFEA8FFFFF80B14368FC
:103B7000094A93420AD013F0685F05D0BFF35F8F04
:103B80000023036018467047044870470448704794
:103B90006FF4E040704700BF2C5F5CA9E98FFFFF26
:103BA000EA8FFFFF10B5044620B1044B636000228A
:103BB000226010BD0248FFF779FFF6E73A00003AAD
:103BC0001853000070B5D0E90023174C174D6360FF
:103BD000D0E90230C4E9023022604868D1F800C060
:103BE000134BC3E900C0D5F81801D1F808C0C3F8D9
:103BF00008C010F0685FD1F80CC00969C3F80CC0A8
:103C0000196110D00B49C5F8BC110023C5E9453135
:103C100005F58A70C5F8B8319047236805F5DC7062
:103C2000BDE87040184770BD640000207009002096
:103C3000500000202C5F5CA938B500F02FF820B1AF
:103C4000032400F063F8204638BD00F031F898B93D
:103C500000F0ACF898B90F4DD5F828391B0EF02BB1
:103C600008D1D5F8242A0C4B9A420AD0072400F038
:103C700017F8E6E70624FAE70424204638BD0024B6
:103C8000F5E7012000F092F804460028F7D1C5F8C6
:103C90000C0AD8E700B002500000E0200020704776
:103CA00000207047014BC3F8040A704700B002506F
:103CB00010B5114800F048F800B110BD0F4800F0F1
:103CC00043F80028F9D10E4C204600F03DF80028BA
:103CD000F3D10C4B0C481C6000F036F8014600286C
:103CE000EBD100F02DF8044608B1204610BD00F0DD
:103CF0003FF82046FAE700BFA4000020A000002003
:103D00009C000020940000209800002008B508487E
:103D100000F024F8074800F021F8074800F01EF8EA
:103D2000064800F01BF8BDE8084000F00BB800BFE3
:103D3000A4000020A00000209C000020980000208B
:103D400000207047704700BF08B5034B02681B682E
:103D500010689847002008BD6400002008B5034B98
:103D600002685B6810689847002008BD6400002066
:103D700070B5094C094D2069AB68984718B1084BDC
:103D800008485B689847084AEB6820690021116081
:103D9000BDE87040184700BF5000002064000020BC
:103DA000480000203C5300006C090020F8B51A4D73
:103DB0001A4E0446B26828699047E8B9184F3B6824
:103DC0004CB1A3B1012B19D0013B3B602869F368CA
:103DD00098470020F8BD43B9124A0121C2F80015E6
:103DE0001149D1F81029002AFBD101333B60F36857
:103DF000286998470020F8BD0C48F8BD0A4AD2F857
:103E00001039002BFBD1074A6FF07E40C2F8003515
:103E1000FFF748FF3B68D7E7500000206400002010
:103E20006C09002000A0025000B00250E98FFFFF93
:103E30000FB407B5064B04AA186852F8041B019288
:103E400000F008F803B05DF804EB04B0704700BF61
:103E5000205200002DE9F04F8DB043680293837823
:103E600015469A07804640F10D8100240E78002EF9
:103E700000F00A81252E0BD04B1C03930134029BCA
:103E80004146304698470028C0F2F6800399EDE796
:103E90004E788B1C252E0393F0D00027B946BB46E5
:103EA000BBF11F0F38D8A6F12003102B0AD8DFE88A
:103EB00003F02A0909300909092109090928092DEE
:103EC00009091F00A6F13003092B33D92A2E37D157
:103ED0001BF0400F55F8043B40F08280002BA7BF39
:103EE0004BF0200B9946C3F100094BF0280B01E081
:103EF0004BF0010B039B13F8016B0393002ECFD102
:103F000030E04BF0020B4BF0040BF3E74BF0080BE7
:103F1000F0E74BF0100BEDE7BBF17F0F19D8A6F1DE
:103F20003003092BD2D81BF0400F03D00A2101FB2C
:103F30000737DFE70A2101FB09394BF0200BD9E7EE
:103F40002E2E06D11BF0400F40F09E804BF0400B10
:103F5000D0E76C2E31D02BD8682E36D06A2E3CD0CC
:103F60004C2E3AD0002F46F02003B8BF2BF0400271
:103F7000A3F16501BCBF1FFA82FB0027022901D90A
:103F8000612B2FD1073525F00705DFF8ACA20835E6
:103F900007271BF0080F66D00AEB070B56465E4555
:103FA00063D1A4EB0A0A06EB0A02A9EB07096FE149
:103FB000742E9FD07A2E9DD0D4E71BF0800F18BFAF
:103FC0004BF4007B4BF0800B94E71BF4807F18BF11
:103FD0004BF4007B4BF4807B8CE74BF4207B89E730
:103FE0001F4687E7A6F16301122900F2F080DFE89F
:103FF00011F013004F00EE00EE00EE00EE004F0057
:10400000EE00EE00EE00EE00EE00FE00E900EE0035
:10401000EE001B00EE00AF0055F8043B8DF81830A1
:1040200001270DF1180AB4E755F804AB834BBAF138
:10403000000F08BF9A461BF0400F14BF39464FF0DF
:10404000FF31504600F0FDFE0746A2E7029B4146C5
:104050002020984700280FDB013EB742F6D34C449E
:10406000A41BB14698E74E46F7E716F8010B029BF2
:1040700041469847002892DA98F8023043F004034A
:1040800088F802304FF0FF3420460DB0BDE8F08FC5
:104090001BF0800F34D01BF4007F2CD0073525F0A7
:1040A0000705AA4669685AF8080B2BF01005002985
:1040B000ADB237DA404261EB410145F480650DF164
:1040C000180B0A235A4600F0C8FEA0EB0B0301931D
:1040D0006B0662D5019B25F001019F4289B240F336
:1040E000A180002E00F0998015F0100240F09C8015
:1040F000BB460D4623E0AA465AF8040BC117D4E785
:10410000AA461BF4807F5AF8041B01D10846F5E744
:104110001BF4007F15BF48B208B241F3C01141F350
:10412000C031C2E750EA0103C9D11BF0400FC6D02D
:10413000002FC4D12BF0110295B2BB46019740F27B
:10414000064115EA01021CBF0BF1010B00222CE015
:104150002BF010021FFA82FB0A231BF0800C49D0BF
:104160001BF400711DBF073525F00705AA46AA46B6
:104170001ABF5AF8080B69685AF8040B50EA01058F
:1041800045D12BF016051BF0400FADB242D0002FE9
:1041900040D12BF0170295B2019715F0100248D0CC
:1041A000019B002E42D103F1010B29075AD4EB07E2
:1041B00006D5D9456FDD0199A9EB0B035F18CB46F6
:1041C0005B4649E04BF0100B10237826C5E7782BAF
:1041D00004D1C6F1780343F01003BEE7029B4146C9
:1041E000252098470028FFF647AF023447E608230A
:1041F0000026B2E7AA461BF480715AF8040BBDD022
:104200001BF400711ABFC0B2614680B2B6E72BF052
:10421000060295B20DF1180B54E725F01105ADB269
:10422000BB468CE70D46B8E73B460D4603F1020B53
:10423000BBE7DDF804B082E7A8540000A1540000F9
:10424000CDE904324146029B202098470028FFF622
:1042500013AF049B059A01339945F1DCA4EB0B01E4
:10426000CC189B460AB3029B414630209847002851
:10427000FFF602AF8EB901342744019B391B9942E6
:1042800024DC1D465DBB019AA9EB0B09224455466F
:104290001446914435E0019F92E70234414630468E
:1042A000029B98470028E7DAE6E640F206410D4215
:1042B000E2D015F0020F14BF2B20202015F4806FE0
:1042C00004F10104414618BF2D20E9E7029B414655
:1042D00030209847002804F10104CEDACCE606AB82
:1042E000013D4146585D029B98470028CADAC3E663
:1042F000029B414620209847002804F10104FFF664
:10430000BBAEA9EB0403002BF2DCBFE5704783686A
:1043100000EBC101B3F5004F2CBF51F8220031F87A
:104320001200704700EBC1018068B0F5004F2CBF50
:1043300041F8223021F81230704708B50122FFF70A
:10434000E6FFD04008BD8368B3F5004F00EBC10124
:1043500008D34B681AB143F001034B60704723F058
:104360000103FAE74B881AB143F001034B80704711
:1043700023F00103FAE753000122FFF7D3BFB0F5A2
:10438000004F34BF04230823481C0833A0EBD3009C
:10439000B0FA80F0C0F11F0070472DE9F0410D46E2
:1043A00086680446FFF7C9FFB6F5004F014601D302
:1043B000012832D03046FFF7E2FF04EB80010E699E
:1043C00096B9E368012282401343E36002220D6143
:1043D0002B4629462046FFF7A5FF03222946204603
:1043E000BDE8F041FFF79EBF022231462046FFF7AD
:1043F0008EFF2946034607462046FFF793FF032218
:10440000334629462046FFF78DFF39462B46204686
:10441000FFF788FF02223146E1E7BDE8F081B2F5FF
:10442000802F2CBF08230423D21A2DE9F0418C18C9
:10443000CD1D25F0070524F00704641B0026E408C1
:1044400005602146AC60EE602046FFF798FF421DF4
:104450009200013002F107074FEAD707A2F11002DC
:104460003146B8BF324605F1100000F0E2FC3A4692
:1044700031462846FFF77FFF33463246314628460D
:10448000FFF750FFA4EB0708284631460122FFF74B
:104490005AFF42463946FFF76EFF3B4632463946E1
:1044A0002846FFF73FFF21462846FFF764FF4346B3
:1044B000324621462846FFF735FF2146284601228D
:1044C000FFF741FF3946BDE8F041FFF766BF002026
:1044D00070470FB407B504A951F8040B0191FBF71D
:1044E00055FE03B05DF804EB04B07047038B13F086
:1044F000070305D10368002B0CBF00200320704781
:10450000022B05D1408BB0FA80F040098000704743
:10451000012B05D10368002B0CBF0020052070473C
:104520000020704710B50C4600B111B96FF01500AE
:1045300010BD081D00F093F80028F9D1A368032BE3
:10454000F6D9F3E72DE9F0410D4607461946281D37
:1045500090461E4600F094F8044638B13346424671
:1045600029463846A446BDE8F0416047BDE8F081E1
:1045700010B4EFF31182202484F31288BFF36F8FFD
:10458000416110BC0121FBF733BE38B50C4605462E
:1045900058B151B10B6843B14B6833B11C220021B3
:1045A00000F047FC2C61002038BD6FF01500FBE7E0
:1045B00070B505460E46FFF7B5FF041E14DBEFF39A
:1045C0001182202383F31288BFF36F8F6B8B2C8BA8
:1045D0004FF6FF718B4204F0070407D182F3118874
:1045E000BFF36F8F6FF00A04204670BD022C0CD110
:1045F00001336B8382F31188BFF36F8F0023224650
:1046000031462846FFF79EFFEEE7062C14D8DFE878
:1046100004F004131313041A0400002333606B68BE
:104620003BB9C5E90066ACB902212846FBF7E0FDBD
:10463000DAE71E606E60F6E782F31188BFF36F8FD2
:104640006FF00404D0E782F31188BFF36F8F6FF02F
:104650008504C9E782F31188BFF36F8FC4E703466F
:1046600058B1426802F00302012A03D0032A04D1A0
:10467000026812B10020986070476FF01500704713
:104680004268816002F00302032A4FF000020346F1
:104690000CBF006810465A6070477047FEE701285B
:1046A00001D1EFF30583FEF7D9B901460068FFF7A2
:1046B000F6BF08B5FBF7AAFFBDE80840FBF7CABF85
:1046C00000210120FFF7EBBF61B662B680F31188CD
:1046D000BFF36F8F704772B6002383F31188BFF367
:1046E0006F8FBFF34F8F30BF62B6BFF36F8F7047CE
:1046F00072B6002383F31188BFF36F8FBFF34F8F20
:1047000020BF80F31188BFF36F8F62B670472028F7
:1047100009D9B0F1004F08D80138B0FA80F0C0F1E3
:104720001F0040007047082070473E20704708B5C2
:10473000FCF7E0FB002008BD0369C9B20C2201FBB5
:104740000233186C00F00700704770B5C9B20369F6
:10475000EFF31185202484F31288BFF36F8F0C26AA
:1047600006FB0134246C14F0C00408D0A24206D029
:1047700085F31188BFF36F8F4FF0FF3070BD06FBDC
:10478000013301221A6485F31188BFF36F8F4368E8
:1047900003EBC1035B6898470020EFE78022FFF737
:1047A000D4BFF8B5069F0469C9B2EFF3118620257E
:1047B00085F31288BFF36F8F0C2505FB0144256C30
:1047C00005F0070CBCF1010F0CD1276486F31188AA
:1047D000BFF36F8FC4E90E23436853F83130984715
:1047E0000020F8BD05F0C005AF4286F31188BFF385
:1047F0006F8F0CBF6FF077004FF0FF30F1E713B50C
:1048000080240094FFF7CDFF02B010BD10B4006902
:10481000CBB21C2403FB0400002110BC1047002075
:10482000FDF7A8BC002000F0EBB81046FEF75ABB1D
:1048300043685B68D3F810350B600020704743680D
:104840005B6802EA010021EA0201C3F80805C3F827
:104850000C150020704743685B680020C3F80815FA
:10486000704743685B680020C3F80C1570474368C5
:104870005A68D2F8043521EA03000B40C2F8080553
:10488000C2F80C350020704710B503695868F8B1BC
:10489000884219D19C6808685860A14200D198608C
:1048A000002008602AB15A680A609A68596002B903
:1048B0009960002010E0814206D108682060986865
:1048C0008142EDD19C60EBE7044600680028F2D1FC
:1048D000002AE8D16FF0150010BD30B543681360B1
:1048E000057A446804EBC504A34202D36FF00100CB
:1048F00030BD5C798C4201D00833F0E70020F7E747
:1049000043681B68D3F88004C3F88004704742688A
:104910001368D3F8100150B1D269002012780A70E0
:10492000C3F81001D3F8102101221A6070474FF02C
:10493000FF30704702680346D2F8580140B95B68FF
:10494000DB0706D4D2F82001003818BF01207047D9
:104950000120704743681B68D3F80423D20517D59C
:10496000D3F82021A2B1EFF31182202181F3128824
:10497000BFF36F8FD3F8201131B10021C3F820119C
:10498000D3F820110121D96082F31188BFF36F8F12
:10499000D3F85831704713B501AA0446FFF79DFFBD
:1049A000002805DB019B226819791868FCF752FE84
:1049B00002B010BD00F150039B009BB203F1804395
:1049C00003F5883300221A601B687047FFF740B870
:1049D00008B5FBF72FFDFBF703FEBDE80840FFF726
:1049E00037B8004700F08EB8C00000F1804000F5F5
:1049F000F830C0F81015C0F814257047FEF728B835
:104A0000FDF734BBF7B5019001A8DDE9084716466C
:104A10001D46FDF741FC019BB6F1000C18BF4FF09D
:104A2000010C00EB83000B1E18BF0123002D43EA8D
:104A30004C0314BF4FF00C0C4FF0000C002C43EA59
:104A40000C0314BF4FF4E06C4FF0000C002F43EA4E
:104A50000C03D0F8002714BF4FF4403C4FF0000C7B
:104A600043EA0C0322EA030301B109780EB1367858
:104A7000760019430DB12D78AD0031430CB1247887
:104A8000240229430FB13F783F040C433C43C0F854
:104A9000004703B0F0BD1FB50DF10F0301930023D4
:104AA0008DF80F1000931A461946FFF7ABFF05B0BB
:104AB0005DF804FB38B5054608460C46FDF73EFC9C
:104AC000B0B10846FDF72EFC90B90846FDF71EFC74
:104AD0002A6801238340C2F808332A6803B202EB34
:104AE0008303D3F8102522F00302C3F8102538BD44
:104AF00020460021BDE83840FFF7CDBFFDF7A4BC3C
:104B0000FFF7D8BF08B1FCF73DBA7047704740B116
:104B1000C368587810F001001EBF1878B0FA80F012
:104B200040097047EFF31183202383F31288BFF30A
:104B30006F8FFEE708B5FFF7F5FF10B54369044630
:104B400033B90020E268537843F00103537010BD7D
:104B500098470028F5D00028B8BF4042E368FF28F6
:104B6000A8BFFF201870EDE700F063B900F053B95B
:104B70004169836843EA010212F003020FD1C26067
:104B80000269013A01FB023382689A4201D900208E
:104B90007047C2681A604269C3609B1AF4E76FF0FD
:104BA0001500704710B5C0E90432002381608361AD
:104BB0000446FFF7DDFF0028A8BFC4E9004410BD8C
:104BC0002DE9F04105460F46EFF31188202383F3CA
:104BD0001288BFF36F8FC668F6B90468A0421BD075
:104BE000D4B1D4E9003213605A60637BA66023F02D
:104BF00002036373C4E9006604F1180000F0DFF8F3
:104C00002046A667276100F06CF8414605F10800D0
:104C1000BDE8F041FEF786BB3E60AB69EF60013B4B
:104C2000AB6188F31188BFF36F8FBDE8F08108B5E1
:104C30002024EFF3118384F31288BFF36F8FFFF703
:104C40004AFDF6E790F90E308B4201D0FEF7F8BA34
:104C50000020704703460020C3E90200C3E9003387
:104C60007047EFF30580003818BF01207047D0E986
:104C7000003213605A600023C0E90033704708B562
:104C8000FFF7F5FF437B23F00203437300238360A8
:104C900008BD38B504460D46FEF730FA637B43F095
:104CA00002036373E5B1A5602B689D4209D16B686F
:104CB000C4E900531C606C6012E06A689A42F6D046
:104CC0001B68002BF3D094F90E2093F90E108A4242
:104CD000F3D09142F1DD5A68C4E9003214605C609F
:104CE00038BD10B5EFF31184202383F31288BFF38E
:104CF0006F8FFEF7C1F984F31188BFF36F8F10BD7A
:104D000010B50146EFF31184202383F31288BFF31B
:104D10006F8F437B13F0280F0AD183680BB1FFF725
:104D2000AEFF4B7B23F004034B730846FEF7A4F958
:104D300084F31188BFF36F8F10BD01211838FFF77E
:104D4000DFBF38B504460D46FEF7A6FBB5F1FF3FC1
:104D500008BFB4F1FF3F0246204618D000204FF4B0
:104D60007A7447F6FF730146C2FB0431B3F5004F76
:104D700071F100020BD36FF400429A4243F6FF72C6
:104D80008A4126BFD80B40EA41406FF0004038BD51
:104D900008B50246FEF724FD70B1D0E904319B1A34
:104DA00061EBE272B3F1004F72F1000104DA002A04
:104DB000ACBF1846002008BD6FF00040FBE738B5D7
:104DC0000246EFF31185202383F31288BFF36F8F20
:104DD0000368CBB1FEF704FD04461046FEF712FD52
:104DE00000224FF000438442C0E9042306D1FEF7BD
:104DF000FFFCFFF7CDFF0021FCF7BEFF002085F38D
:104E00001188BFF36F8F38BD6FF01500F7E708B555
:104E1000FEF706FE08BD0A44914200F1FF3300D1BF
:104E2000704710B511F8014B03F8014F9142F9D1C9
:104E300010BD02440346934200D1704703F8011BA2
:104E4000F9E710B5024601448A42134603D01C78A4
:104E50000132002CF8D1181A10BDF0B5C3F1370794
:104E60000446FFB203F01F031046082BE6B233D00E
:104E7000102B3ED06508A40844EA817445EAC17548
:104E80002D194FEA910242EB5102290941EA0271C0
:104E90006D1842EB1212290A41EA02616D1842EBC9
:104EA0001222290C41EA02416D1842EB1242AD1860
:104EB00042F10002EC0844EA4274D10804EB840297
:104EC000A6EB4205EDB2092D0CD90134A5F10A0576
:104ED00041F10001EDB212E0E40844EA417406F049
:104EE0000705C908303554EA010200F8015BBCD15E
:104EF000F0BD240944EA017406F00F050909092DE3
:104F000084BFED19EDB2EDE701480068704700007D
:044F1000DC0700209A
:104F1400410F000000000000000000006C4F000082
:104F2400D52C00000000000000000000AC4F000081
:104F3400000000008C4F0000CD490000000000007C
:104F440000000000CC4F0000A91200000000000087
:104F5400151C0000000000001D0F000000000000F0
:084F6400D1490000000000002B
:104F6C003D5400003052000090510000A800002079
:104F7C00100800204110000000000000000000009C
:104F8C004C540000405200006C510000AA0000205C
:104F9C006408002061140000000000000000000004
:104FAC005A540000585200006C510000AC00002014
:104FBC0070080020611400000000000000000000D8
:104FCC007054000070520000AC510000AE00002084
:104FDC007C080020AD18000000000000000000005C
:104FEC001D220000E349000000000000C146000043
:104FFC00CC4F00005549000000000000C1460000E5
:10500C0000000000C146000000000000C146000086
:10501C00A1280000E349000000000000C146000088
:10502C0000000000C146000000000000C146000066
:10503C0000000000C146000000000000C146000056
:10504C0000000000C146000000000000C146000046
:10505C0000000000C146000000000000C146000036
:10506C0000000000C146000000000000A51C00006C
:10507C0000000000C146000000000000C146000016
:10508C0000000000C146000000000000C146000006
:10509C0000000000C146000000000000C1460000F6
:1050AC0000000000C146000000000000C1460000E6
:1050BC0000000000C146000000000000C1460000D6
:1050CC0000000000C146000000000000C1460000C6
:1050DC0000000000C146000000000000C1460000B6
:1050EC0000000000C146000000000000C1460000A6
:1050FC0000000000C146000000000000C146000096
:10510C0000000000C146000000000000C146000085
:10511C0000000000C146000000000000C146000075
:10512C0000000000C146000000000000C146000065
:10513C0000000000C146000000000000C146000055
:10514C0000000000C146000000000000C146000045
:10515C0000000000C146000000000000C146000035
:10516C00A9140000314800003F48000057480000D7
:10517C00634800006F480000F912000089480000E5
:04518C00000000001F
:10519000991000009D470000FF470000000000003C
:0C51A00039470000000000000000000083
:0C51AC000F490000F91700000149000045
:1051C0000338FDD870470000000000009D46000035
:1051D0001C000020140000200C0000200000000033
:1051E000040000204D05000041040000950400006B
:1051F000F5040000000000200000000000000B0685
:1052000002000000085200000000000028540000C6
:1052100026000206000000203054000022000B117E
:1052200024000020C90F0000990F000000000000BA
:10523000191100000D1000001F4800002548000053
:10524000FFFF00000003005000000000010000000C
:105250000060004000000000BCF801FF00000050AA
:10526000000000000000000000600040000000009E
:1052700000200040010000000000000090520000EB
:105280000000D60100000000320B0020310B00208E
:10529000002000409C52000001000000A4520000C9
:1052A00004000000060000000500000208060001DE
:1052B000070600030800000003000000144F000070
:1052C000144F0000544F00005C4F00006C4F000072
:1052D0006C4F0000FF8FFFFFFF8FFFFFFE8FFFFF70
:1052E000FE8FFFFFFD8FFFFFFC8FFFFFFC8FFFFF97
:1052F0006D757465785F667265652063616C6C6559
:10530000642077697468204E554C4C20706172613E
:105310006D6574657200000043616E277420696ECC
:10532000697469616C697A65206D757465782C2083
:10533000776173204E554C4C0D0A0000436F756C1D
:1053400064206E6F74206C6F636B20706F77657272
:105350002073617665206D75746578004F4E004F3F
:105360004646004C45442073746174653A202573A9
:105370000A002A2A2A20426F6F74696E67206E52D3
:105380004620436F6E6E6563742053444B20763322
:105390002E312E302D366336653562333234393650
:1053A00065202A2A2A0A002A2A2A205573696E674C
:1053B000205A6570687972204F532076342E312E32
:1053C00039392D313631323638336434303130208A
:1053D0002A2A2A0A006D757465785F696E697420DF
:1053E00063616C6C65642077697468204E554C4C21
:1053F00020706172616D6574657200436F756C64D5
:10540000206E6F7420616C6C6F63617465206D75C4
:10541000746578206265666F726520696E6974696B
:10542000616C697A696E6700464C4153485F300091
:105430005352414D5F3000000001000000636C6F6B
:10544000636B403430303030303030006770696F1B
:10545000403530303030333030006770696F403560
:1054600030303030303030000001020304050607D0
:1054700075617274403430303032303030000000AA
:10548000000000010100000000000020303030303A
:105490003030303030303030303000016D61696E86
:1054A00000286E756C6C29002A666C6F61742A0086
:1054B000CF440000C40000203A000000D8000020C3
:1054C0003A000000B00000203A000000EC0000208C
:1054D0003A000000000000002F470000000000001C
:1054E00000000000FF000000FFFF0F00900200001E
:1054F000400000204000002000000000893A000029
:105500008C000020840000207C00002000000000AF
:1055100074000020A53B0000F13A0000253B00008C
:105520006D3B00005C0900203A00003A6009002051
:105530003A00003A640900203A00003A6809002065
:105540003A00003A9C000020600000205800002033
:0855500054000020500000206F
:0855580000000000000000004B
:10556000B0000020B000002000000000000000009B
:105570000E000000C4000020C40000200000000055
:10558000000000000E000000D8000020D80000201D
:1055900000000000000000000E000000EC000020F1
:1055A000EC00002000000000000000000E000000E1
:0455B00015E015E00D
:0400000300000929C7
:00000001FF
